{
  "abi": [
    {
      "type": "constructor",
      "inputs": [],
      "stateMutability": "nonpayable"
    },
    {
      "type": "function",
      "name": "approve",
      "inputs": [
        {
          "name": "to",
          "type": "address",
          "internalType": "address"
        },
        {
          "name": "tokenId",
          "type": "uint256",
          "internalType": "uint256"
        }
      ],
      "outputs": [],
      "stateMutability": "nonpayable"
    },
    {
      "type": "function",
      "name": "balanceOf",
      "inputs": [
        {
          "name": "owner",
          "type": "address",
          "internalType": "address"
        }
      ],
      "outputs": [
        {
          "name": "",
          "type": "uint256",
          "internalType": "uint256"
        }
      ],
      "stateMutability": "view"
    },
    {
      "type": "function",
      "name": "batchMint",
      "inputs": [
        {
          "name": "tokenType",
          "type": "uint256",
          "internalType": "uint256"
        },
        {
          "name": "numberOfTokens",
          "type": "uint256",
          "internalType": "uint256"
        }
      ],
      "outputs": [],
      "stateMutability": "payable"
    },
    {
      "type": "function",
      "name": "createEditionInfo",
      "inputs": [
        {
          "name": "tokenName",
          "type": "string",
          "internalType": "string"
        },
        {
          "name": "image",
          "type": "string",
          "internalType": "string"
        },
        {
          "name": "description",
          "type": "string",
          "internalType": "string"
        },
        {
          "name": "mintStart",
          "type": "uint256",
          "internalType": "uint256"
        },
        {
          "name": "mintEnd",
          "type": "uint256",
          "internalType": "uint256"
        },
        {
          "name": "maxSupply",
          "type": "uint256",
          "internalType": "uint256"
        },
        {
          "name": "tokenPrice",
          "type": "uint256",
          "internalType": "uint256"
        },
        {
          "name": "maxNumberOfTokensPerWallet",
          "type": "uint256",
          "internalType": "uint256"
        }
      ],
      "outputs": [],
      "stateMutability": "nonpayable"
    },
    {
      "type": "function",
      "name": "getApproved",
      "inputs": [
        {
          "name": "tokenId",
          "type": "uint256",
          "internalType": "uint256"
        }
      ],
      "outputs": [
        {
          "name": "",
          "type": "address",
          "internalType": "address"
        }
      ],
      "stateMutability": "view"
    },
    {
      "type": "function",
      "name": "init",
      "inputs": [
        {
          "name": "__name",
          "type": "string",
          "internalType": "string"
        },
        {
          "name": "__symbol",
          "type": "string",
          "internalType": "string"
        },
        {
          "name": "_owner",
          "type": "address",
          "internalType": "address"
        }
      ],
      "outputs": [
        {
          "name": "",
          "type": "address",
          "internalType": "address"
        }
      ],
      "stateMutability": "nonpayable"
    },
    {
      "type": "function",
      "name": "isApprovedForAll",
      "inputs": [
        {
          "name": "owner",
          "type": "address",
          "internalType": "address"
        },
        {
          "name": "operator",
          "type": "address",
          "internalType": "address"
        }
      ],
      "outputs": [
        {
          "name": "",
          "type": "bool",
          "internalType": "bool"
        }
      ],
      "stateMutability": "view"
    },
    {
      "type": "function",
      "name": "name",
      "inputs": [],
      "outputs": [
        {
          "name": "",
          "type": "string",
          "internalType": "string"
        }
      ],
      "stateMutability": "view"
    },
    {
      "type": "function",
      "name": "nextTokenId",
      "inputs": [],
      "outputs": [
        {
          "name": "",
          "type": "uint256",
          "internalType": "uint256"
        }
      ],
      "stateMutability": "view"
    },
    {
      "type": "function",
      "name": "nextTokenTypeId",
      "inputs": [],
      "outputs": [
        {
          "name": "",
          "type": "uint256",
          "internalType": "uint256"
        }
      ],
      "stateMutability": "view"
    },
    {
      "type": "function",
      "name": "owner",
      "inputs": [],
      "outputs": [
        {
          "name": "",
          "type": "address",
          "internalType": "address"
        }
      ],
      "stateMutability": "view"
    },
    {
      "type": "function",
      "name": "ownerOf",
      "inputs": [
        {
          "name": "tokenId",
          "type": "uint256",
          "internalType": "uint256"
        }
      ],
      "outputs": [
        {
          "name": "",
          "type": "address",
          "internalType": "address"
        }
      ],
      "stateMutability": "view"
    },
    {
      "type": "function",
      "name": "pause",
      "inputs": [],
      "outputs": [],
      "stateMutability": "nonpayable"
    },
    {
      "type": "function",
      "name": "paused",
      "inputs": [],
      "outputs": [
        {
          "name": "",
          "type": "bool",
          "internalType": "bool"
        }
      ],
      "stateMutability": "view"
    },
    {
      "type": "function",
      "name": "safeTransferFrom",
      "inputs": [
        {
          "name": "from",
          "type": "address",
          "internalType": "address"
        },
        {
          "name": "to",
          "type": "address",
          "internalType": "address"
        },
        {
          "name": "tokenId",
          "type": "uint256",
          "internalType": "uint256"
        }
      ],
      "outputs": [],
      "stateMutability": "nonpayable"
    },
    {
      "type": "function",
      "name": "safeTransferFrom",
      "inputs": [
        {
          "name": "from",
          "type": "address",
          "internalType": "address"
        },
        {
          "name": "to",
          "type": "address",
          "internalType": "address"
        },
        {
          "name": "tokenId",
          "type": "uint256",
          "internalType": "uint256"
        },
        {
          "name": "data",
          "type": "bytes",
          "internalType": "bytes"
        }
      ],
      "outputs": [],
      "stateMutability": "nonpayable"
    },
    {
      "type": "function",
      "name": "setApprovalForAll",
      "inputs": [
        {
          "name": "operator",
          "type": "address",
          "internalType": "address"
        },
        {
          "name": "approved",
          "type": "bool",
          "internalType": "bool"
        }
      ],
      "outputs": [],
      "stateMutability": "nonpayable"
    },
    {
      "type": "function",
      "name": "supportsInterface",
      "inputs": [
        {
          "name": "interfaceId",
          "type": "bytes4",
          "internalType": "bytes4"
        }
      ],
      "outputs": [
        {
          "name": "",
          "type": "bool",
          "internalType": "bool"
        }
      ],
      "stateMutability": "view"
    },
    {
      "type": "function",
      "name": "symbol",
      "inputs": [],
      "outputs": [
        {
          "name": "",
          "type": "string",
          "internalType": "string"
        }
      ],
      "stateMutability": "view"
    },
    {
      "type": "function",
      "name": "tokenIdToEdition",
      "inputs": [
        {
          "name": "",
          "type": "uint256",
          "internalType": "uint256"
        }
      ],
      "outputs": [
        {
          "name": "typeId",
          "type": "uint256",
          "internalType": "uint256"
        },
        {
          "name": "edition",
          "type": "uint256",
          "internalType": "uint256"
        }
      ],
      "stateMutability": "view"
    },
    {
      "type": "function",
      "name": "tokenURI",
      "inputs": [
        {
          "name": "tokenId",
          "type": "uint256",
          "internalType": "uint256"
        }
      ],
      "outputs": [
        {
          "name": "",
          "type": "string",
          "internalType": "string"
        }
      ],
      "stateMutability": "view"
    },
    {
      "type": "function",
      "name": "transferFrom",
      "inputs": [
        {
          "name": "from",
          "type": "address",
          "internalType": "address"
        },
        {
          "name": "to",
          "type": "address",
          "internalType": "address"
        },
        {
          "name": "tokenId",
          "type": "uint256",
          "internalType": "uint256"
        }
      ],
      "outputs": [],
      "stateMutability": "nonpayable"
    },
    {
      "type": "function",
      "name": "transferOwnership",
      "inputs": [
        {
          "name": "newOwner",
          "type": "address",
          "internalType": "address"
        }
      ],
      "outputs": [],
      "stateMutability": "nonpayable"
    },
    {
      "type": "function",
      "name": "typeIDToInfo",
      "inputs": [
        {
          "name": "",
          "type": "uint256",
          "internalType": "uint256"
        }
      ],
      "outputs": [
        {
          "name": "name",
          "type": "string",
          "internalType": "string"
        },
        {
          "name": "image",
          "type": "string",
          "internalType": "string"
        },
        {
          "name": "description",
          "type": "string",
          "internalType": "string"
        },
        {
          "name": "mintStart",
          "type": "uint256",
          "internalType": "uint256"
        },
        {
          "name": "mintEnd",
          "type": "uint256",
          "internalType": "uint256"
        },
        {
          "name": "maxSupply",
          "type": "uint256",
          "internalType": "uint256"
        },
        {
          "name": "totalSupply",
          "type": "uint256",
          "internalType": "uint256"
        },
        {
          "name": "tokenPrice",
          "type": "uint256",
          "internalType": "uint256"
        },
        {
          "name": "maxNumberOfTokensPerWallet",
          "type": "uint256",
          "internalType": "uint256"
        }
      ],
      "stateMutability": "view"
    },
    {
      "type": "function",
      "name": "unpause",
      "inputs": [],
      "outputs": [],
      "stateMutability": "nonpayable"
    },
    {
      "type": "event",
      "name": "Approval",
      "inputs": [
        {
          "name": "owner",
          "type": "address",
          "indexed": true,
          "internalType": "address"
        },
        {
          "name": "approved",
          "type": "address",
          "indexed": true,
          "internalType": "address"
        },
        {
          "name": "tokenId",
          "type": "uint256",
          "indexed": true,
          "internalType": "uint256"
        }
      ],
      "anonymous": false
    },
    {
      "type": "event",
      "name": "ApprovalForAll",
      "inputs": [
        {
          "name": "owner",
          "type": "address",
          "indexed": true,
          "internalType": "address"
        },
        {
          "name": "operator",
          "type": "address",
          "indexed": true,
          "internalType": "address"
        },
        {
          "name": "approved",
          "type": "bool",
          "indexed": false,
          "internalType": "bool"
        }
      ],
      "anonymous": false
    },
    {
      "type": "event",
      "name": "Minted",
      "inputs": [
        {
          "name": "_from",
          "type": "address",
          "indexed": true,
          "internalType": "address"
        },
        {
          "name": "tokenType",
          "type": "uint256",
          "indexed": true,
          "internalType": "uint256"
        },
        {
          "name": "tokenId",
          "type": "uint256",
          "indexed": true,
          "internalType": "uint256"
        },
        {
          "name": "_value",
          "type": "uint256",
          "indexed": false,
          "internalType": "uint256"
        }
      ],
      "anonymous": false
    },
    {
      "type": "event",
      "name": "OwnershipTransferred",
      "inputs": [
        {
          "name": "user",
          "type": "address",
          "indexed": true,
          "internalType": "address"
        },
        {
          "name": "newOwner",
          "type": "address",
          "indexed": true,
          "internalType": "address"
        }
      ],
      "anonymous": false
    },
    {
      "type": "event",
      "name": "Paused",
      "inputs": [
        {
          "name": "account",
          "type": "address",
          "indexed": false,
          "internalType": "address"
        }
      ],
      "anonymous": false
    },
    {
      "type": "event",
      "name": "Transfer",
      "inputs": [
        {
          "name": "from",
          "type": "address",
          "indexed": true,
          "internalType": "address"
        },
        {
          "name": "to",
          "type": "address",
          "indexed": true,
          "internalType": "address"
        },
        {
          "name": "tokenId",
          "type": "uint256",
          "indexed": true,
          "internalType": "uint256"
        }
      ],
      "anonymous": false
    },
    {
      "type": "event",
      "name": "Unpaused",
      "inputs": [
        {
          "name": "account",
          "type": "address",
          "indexed": false,
          "internalType": "address"
        }
      ],
      "anonymous": false
    },
    {
      "type": "error",
      "name": "ERC721IncorrectOwner",
      "inputs": [
        {
          "name": "sender",
          "type": "address",
          "internalType": "address"
        },
        {
          "name": "tokenId",
          "type": "uint256",
          "internalType": "uint256"
        },
        {
          "name": "owner",
          "type": "address",
          "internalType": "address"
        }
      ]
    },
    {
      "type": "error",
      "name": "ERC721InsufficientApproval",
      "inputs": [
        {
          "name": "operator",
          "type": "address",
          "internalType": "address"
        },
        {
          "name": "tokenId",
          "type": "uint256",
          "internalType": "uint256"
        }
      ]
    },
    {
      "type": "error",
      "name": "ERC721InvalidApprover",
      "inputs": [
        {
          "name": "approver",
          "type": "address",
          "internalType": "address"
        }
      ]
    },
    {
      "type": "error",
      "name": "ERC721InvalidOperator",
      "inputs": [
        {
          "name": "operator",
          "type": "address",
          "internalType": "address"
        }
      ]
    },
    {
      "type": "error",
      "name": "ERC721InvalidOwner",
      "inputs": [
        {
          "name": "owner",
          "type": "address",
          "internalType": "address"
        }
      ]
    },
    {
      "type": "error",
      "name": "ERC721InvalidReceiver",
      "inputs": [
        {
          "name": "receiver",
          "type": "address",
          "internalType": "address"
        }
      ]
    },
    {
      "type": "error",
      "name": "ERC721InvalidSender",
      "inputs": [
        {
          "name": "sender",
          "type": "address",
          "internalType": "address"
        }
      ]
    },
    {
      "type": "error",
      "name": "ERC721NonexistentToken",
      "inputs": [
        {
          "name": "tokenId",
          "type": "uint256",
          "internalType": "uint256"
        }
      ]
    },
    {
      "type": "error",
      "name": "EnforcedPause",
      "inputs": []
    },
    {
      "type": "error",
      "name": "ExpectedPause",
      "inputs": []
    }
  ],
  "bytecode": {
    "object": "0x60806040526001600b556001600c553480156200001b57600080fd5b506040805160208082018352600080835283519182019093528281528262000044838262000156565b50600162000053828262000156565b5050600680546001600160a81b0319166101006001600160a01b038516908102919091179091556040519091506000907f8be0079c531659141344cd1fd0a4f28419497f9722a3daafe3b4186f6b6457e0908290a35062000222565b634e487b7160e01b600052604160045260246000fd5b600181811c90821680620000da57607f821691505b602082108103620000fb57634e487b7160e01b600052602260045260246000fd5b50919050565b601f82111562000151576000816000526020600020601f850160051c810160208610156200012c5750805b601f850160051c820191505b818110156200014d5782815560010162000138565b5050505b505050565b81516001600160401b03811115620001725762000172620000af565b6200018a81620001838454620000c5565b8462000101565b602080601f831160018114620001c25760008415620001a95750858301515b600019600386901b1c1916600185901b1785556200014d565b600085815260208120601f198616915b82811015620001f357888601518255948401946001909101908401620001d2565b5085821015620002125787850151600019600388901b60f8161c191681555b5050505050600190811b01905550565b61248880620002326000396000f3fe6080604052600436106101665760003560e01c806370a08231116100d1578063a22cb4651161008a578063c6d6fd1911610064578063c6d6fd191461042e578063c87b56dd14610463578063e985e9c514610483578063f2fde38b146104a357600080fd5b8063a22cb465146103ce578063adbad04e146103ee578063b88d4fde1461040e57600080fd5b806370a082311461030057806375794a3c146103205780638456cb59146103365780638da5cb5b1461034b57806395d89b4114610370578063a0e0fa351461038557600080fd5b806323b872dd1161012357806323b872dd146102535780633f4ba83a1461027357806342842e0e146102885780635c975abb146102a85780636352211e146102c05780636ee5741a146102e057600080fd5b806301a03f9f1461016b57806301ffc9a71461019457806306fdde03146101c4578063081812fc146101e6578063095ea7b31461021e5780630ed64eff14610240575b600080fd5b34801561017757600080fd5b50610181600c5481565b6040519081526020015b60405180910390f35b3480156101a057600080fd5b506101b46101af3660046119cd565b6104c3565b604051901515815260200161018b565b3480156101d057600080fd5b506101d96104d4565b60405161018b9190611a41565b3480156101f257600080fd5b50610206610201366004611a54565b610566565b6040516001600160a01b03909116815260200161018b565b34801561022a57600080fd5b5061023e610239366004611a89565b61058f565b005b61023e61024e366004611ab3565b61059e565b34801561025f57600080fd5b5061023e61026e366004611ad5565b610953565b34801561027f57600080fd5b5061023e6109d8565b34801561029457600080fd5b5061023e6102a3366004611ad5565b610a11565b3480156102b457600080fd5b5060065460ff166101b4565b3480156102cc57600080fd5b506102066102db366004611a54565b610a31565b3480156102ec57600080fd5b506102066102fb366004611b5a565b610a3c565b34801561030c57600080fd5b5061018161031b366004611bdb565b610b01565b34801561032c57600080fd5b50610181600b5481565b34801561034257600080fd5b5061023e610b49565b34801561035757600080fd5b506006546102069061010090046001600160a01b031681565b34801561037c57600080fd5b506101d9610b80565b34801561039157600080fd5b506103b96103a0366004611a54565b600a602052600090815260409020805460019091015482565b6040805192835260208301919091520161018b565b3480156103da57600080fd5b5061023e6103e9366004611bf6565b610b8f565b3480156103fa57600080fd5b5061023e610409366004611cde565b610b9a565b34801561041a57600080fd5b5061023e610429366004611d94565b610c5a565b34801561043a57600080fd5b5061044e610449366004611a54565b610c71565b60405161018b99989796959493929190611e10565b34801561046f57600080fd5b506101d961047e366004611a54565b610e4f565b34801561048f57600080fd5b506101b461049e366004611e81565b610f97565b3480156104af57600080fd5b5061023e6104be366004611bdb565b610fc5565b60006104ce82611048565b92915050565b6060600780546104e390611eb4565b80601f016020809104026020016040519081016040528092919081815260200182805461050f90611eb4565b801561055c5780601f106105315761010080835404028352916020019161055c565b820191906000526020600020905b81548152906001019060200180831161053f57829003601f168201915b5050505050905090565b600061057182611098565b506000828152600460205260409020546001600160a01b03166104ce565b61059a8282336110d1565b5050565b6105a66110de565b6000828152600960205260409020600c54831061060a5760405162461bcd60e51b815260206004820152601760248201527f4e6f6e206578697374696e6720746f6b656e207479706500000000000000000060448201526064015b60405180910390fd5b6000821161065a5760405162461bcd60e51b815260206004820152601c60248201527f4d757374206d696e74206174206c65617374206f6e6520746f6b656e000000006044820152606401610601565b81816007015461066a9190611f04565b3410156106ae5760405162461bcd60e51b8152602060048201526012602482015271496e73756666696369656e742066756e647360701b6044820152606401610601565b60038101541561070c57806003015442101561070c5760405162461bcd60e51b815260206004820152601b60248201527f4d696e74696e6720686173206e6f7420737461727465642079657400000000006044820152606401610601565b60048101541561075e57806004015442111561075e5760405162461bcd60e51b8152602060048201526011602482015270135a5b9d1a5b99c81a185cc8195b991959607a1b6044820152606401610601565b6005810154156107c057806005015482826006015461077d9190611f1b565b11156107c05760405162461bcd60e51b815260206004820152601260248201527113585e081cdd5c1c1b1e481c995858da195960721b6044820152606401610601565b60006107cb33610b01565b6008830154909150156108355760088201546107e78483611f1b565b11156108355760405162461bcd60e51b815260206004820152601d60248201527f45786365656473206d617820746f6b656e73207065722077616c6c65740000006044820152606401610601565b60005b8381101561090457600b546040805180820190915286815260068501546020820190610865906001611f1b565b90526000828152600a602090815260409091208251815591015160019091015561088f3382611102565b6006840180549060006108a183611f2e565b9091555050600b80549060006108b683611f2e565b9091555081905086337f5a3358a3d27a5373c0df2604662088d37894d56b7cfd27f315770440f4e0d9196108ea8934611f47565b60405190815260200160405180910390a450600101610838565b50341561094d576006546040516001600160a01b0361010090920491909116903480156108fc02916000818181858888f1935050505015801561094b573d6000803e3d6000fd5b505b50505050565b6001600160a01b03821661097d57604051633250574960e11b815260006004820152602401610601565b600061098a838333611167565b9050836001600160a01b0316816001600160a01b03161461094d576040516364283d7b60e01b81526001600160a01b0380861660048301526024820184905282166044820152606401610601565b60065461010090046001600160a01b03163314610a075760405162461bcd60e51b815260040161060190611f69565b610a0f611184565b565b610a2c83838360405180602001604052806000815250610c5a565b505050565b60006104ce82611098565b600654600090600160a81b900460ff1615610a8f5760405162461bcd60e51b8152602060048201526013602482015272105b1c9958591e481a5b9a5d1a585b1a5e9959606a1b6044820152606401610601565b6007610a9c868883611fdf565b506008610aaa848683611fdf565b5060068054610100600160a81b0319166101006001600160a01b0385160217905560405133906000907f8be0079c531659141344cd1fd0a4f28419497f9722a3daafe3b4186f6b6457e0908290a395945050505050565b60006001600160a01b038216610b2d576040516322718ad960e21b815260006004820152602401610601565b506001600160a01b031660009081526003602052604090205490565b60065461010090046001600160a01b03163314610b785760405162461bcd60e51b815260040161060190611f69565b610a0f6111d6565b6060600880546104e390611eb4565b61059a338383611213565b60065461010090046001600160a01b03163314610bc95760405162461bcd60e51b815260040161060190611f69565b600c54600090815260096020526040902080610be58a8261209f565b5060018101610bf4898261209f565b5060028101610c03888261209f565b5060038101869055600481018590556005810184905560006006820155610c2e83633b9aca00611f04565b600782015560088101829055600c8054906000610c4a83611f2e565b9190505550505050505050505050565b610c65848484610953565b61094d848484846112b2565b600960205260009081526040902080548190610c8c90611eb4565b80601f0160208091040260200160405190810160405280929190818152602001828054610cb890611eb4565b8015610d055780601f10610cda57610100808354040283529160200191610d05565b820191906000526020600020905b815481529060010190602001808311610ce857829003601f168201915b505050505090806001018054610d1a90611eb4565b80601f0160208091040260200160405190810160405280929190818152602001828054610d4690611eb4565b8015610d935780601f10610d6857610100808354040283529160200191610d93565b820191906000526020600020905b815481529060010190602001808311610d7657829003601f168201915b505050505090806002018054610da890611eb4565b80601f0160208091040260200160405190810160405280929190818152602001828054610dd490611eb4565b8015610e215780601f10610df657610100808354040283529160200191610e21565b820191906000526020600020905b815481529060010190602001808311610e0457829003601f168201915b5050505050908060030154908060040154908060050154908060060154908060070154908060080154905089565b6000818152600a6020908152604080832081518083018352815480825260019092015481850190815291855260099093529220915160609290610f6f908290610e97906113d4565b610ea484600601546113d4565b8460010185600201610ee0604051806040016040528060068152602001651d1e5c19525960d21b815250610edb8a600001516113d4565b611467565b610f106040518060400160405280600781526020016632b234ba34b7b760c91b815250610edb8b602001516113d4565b610f446040518060400160405280600b81526020016a746f74616c537570706c7960a81b815250610edb8b600601546113d4565b604051602001610f5b9897969594939291906121ee565b604051602081830303815290604052611493565b604051602001610f7f9190612302565b60405160208183030381529060405292505050919050565b6001600160a01b03918216600090815260056020908152604080832093909416825291909152205460ff1690565b60065461010090046001600160a01b03163314610ff45760405162461bcd60e51b815260040161060190611f69565b60068054610100600160a81b0319166101006001600160a01b0384169081029190911790915560405133907f8be0079c531659141344cd1fd0a4f28419497f9722a3daafe3b4186f6b6457e090600090a350565b60006001600160e01b031982166380ac58cd60e01b148061107957506001600160e01b03198216635b5e139f60e01b145b806104ce57506301ffc9a760e01b6001600160e01b03198316146104ce565b6000818152600260205260408120546001600160a01b0316806104ce57604051637e27328960e01b815260048101849052602401610601565b610a2c83838360016115f3565b60065460ff1615610a0f5760405163d93c066560e01b815260040160405180910390fd5b6001600160a01b03821661112c57604051633250574960e11b815260006004820152602401610601565b600061113a83836000611167565b90506001600160a01b03811615610a2c576040516339e3563760e11b815260006004820152602401610601565b60006111716110de565b61117c8484846116f9565b949350505050565b61118c6117f2565b6006805460ff191690557f5db9ee0a495bf2e6ff9c91a7834c1ba4fdd244a5e8aa4e537bd38aeae4b073aa335b6040516001600160a01b03909116815260200160405180910390a1565b6111de6110de565b6006805460ff191660011790557f62e78cea01bee320cd4e420270b5ea74000d11b0c9f74754ebdbfc544b05a2586111b93390565b6001600160a01b03821661124557604051630b61174360e31b81526001600160a01b0383166004820152602401610601565b6001600160a01b03838116600081815260056020908152604080832094871680845294825291829020805460ff191686151590811790915591519182527f17307eab39ab6107e8899845ad3d59bd9653f200f220920489ca2b5937696c31910160405180910390a3505050565b6001600160a01b0383163b1561094d57604051630a85bd0160e11b81526001600160a01b0384169063150b7a02906112f4903390889087908790600401612347565b6020604051808303816000875af192505050801561132f575060408051601f3d908101601f1916820190925261132c91810190612384565b60015b611398573d80801561135d576040519150601f19603f3d011682016040523d82523d6000602084013e611362565b606091505b50805160000361139057604051633250574960e11b81526001600160a01b0385166004820152602401610601565b805181602001fd5b6001600160e01b03198116630a85bd0160e11b1461094b57604051633250574960e11b81526001600160a01b0385166004820152602401610601565b606060006113e183611815565b600101905060008167ffffffffffffffff81111561140157611401611c32565b6040519080825280601f01601f19166020018201604052801561142b576020820181803683370190505b5090508181016020015b600019016f181899199a1a9b1b9c1cb0b131b232b360811b600a86061a8153600a850494508461143557509392505050565b6060828260405160200161147c9291906123a1565b604051602081830303815290604052905092915050565b606081516000036114b257505060408051602081019091526000815290565b600060405180606001604052806040815260200161241360409139905060006003845160026114e19190611f1b565b6114eb9190611f47565b6114f6906004611f04565b67ffffffffffffffff81111561150e5761150e611c32565b6040519080825280601f01601f191660200182016040528015611538576020820181803683370190505b50905060018201602082018586518701602081018051600082525b828410156115ae576003840193508351603f8160121c168701518653600186019550603f81600c1c168701518653600186019550603f8160061c168701518653600186019550603f8116870151865350600185019450611553565b90525050855160039006600181146115cd57600281146115e0576115e8565b603d6001830353603d60028303536115e8565b603d60018303535b509195945050505050565b808061160757506001600160a01b03821615155b156116c957600061161784611098565b90506001600160a01b038316158015906116435750826001600160a01b0316816001600160a01b031614155b801561165657506116548184610f97565b155b1561167f5760405163a9fbf51f60e01b81526001600160a01b0384166004820152602401610601565b81156116c75783856001600160a01b0316826001600160a01b03167f8c5be1e5ebec7d5bd14f71427d1e84f3dd0314c0f7b2291e5b200ac8c7c3b92560405160405180910390a45b505b5050600090815260046020526040902080546001600160a01b0319166001600160a01b0392909216919091179055565b6000828152600260205260408120546001600160a01b0390811690831615611726576117268184866118ed565b6001600160a01b03811615611764576117436000856000806115f3565b6001600160a01b038116600090815260036020526040902080546000190190555b6001600160a01b03851615611793576001600160a01b0385166000908152600360205260409020805460010190555b60008481526002602052604080822080546001600160a01b0319166001600160a01b0389811691821790925591518793918516917fddf252ad1be2c89b69c2b068fc378daa952ba7f163c4a11628f55a4df523b3ef91a4949350505050565b60065460ff16610a0f57604051638dfc202b60e01b815260040160405180910390fd5b60008072184f03e93ff9f4daa797ed6e38ed64bf6a1f0160401b83106118545772184f03e93ff9f4daa797ed6e38ed64bf6a1f0160401b830492506040015b6d04ee2d6d415b85acef81000000008310611880576d04ee2d6d415b85acef8100000000830492506020015b662386f26fc10000831061189e57662386f26fc10000830492506010015b6305f5e10083106118b6576305f5e100830492506008015b61271083106118ca57612710830492506004015b606483106118dc576064830492506002015b600a83106104ce5760010192915050565b6118f8838383611951565b610a2c576001600160a01b03831661192657604051637e27328960e01b815260048101829052602401610601565b60405163177e802f60e01b81526001600160a01b038316600482015260248101829052604401610601565b60006001600160a01b0383161580159061117c5750826001600160a01b0316846001600160a01b0316148061198b575061198b8484610f97565b8061117c5750506000908152600460205260409020546001600160a01b03908116911614919050565b6001600160e01b0319811681146119ca57600080fd5b50565b6000602082840312156119df57600080fd5b81356119ea816119b4565b9392505050565b60005b83811015611a0c5781810151838201526020016119f4565b50506000910152565b60008151808452611a2d8160208601602086016119f1565b601f01601f19169290920160200192915050565b6020815260006119ea6020830184611a15565b600060208284031215611a6657600080fd5b5035919050565b80356001600160a01b0381168114611a8457600080fd5b919050565b60008060408385031215611a9c57600080fd5b611aa583611a6d565b946020939093013593505050565b60008060408385031215611ac657600080fd5b50508035926020909101359150565b600080600060608486031215611aea57600080fd5b611af384611a6d565b9250611b0160208501611a6d565b9150604084013590509250925092565b60008083601f840112611b2357600080fd5b50813567ffffffffffffffff811115611b3b57600080fd5b602083019150836020828501011115611b5357600080fd5b9250929050565b600080600080600060608688031215611b7257600080fd5b853567ffffffffffffffff80821115611b8a57600080fd5b611b9689838a01611b11565b90975095506020880135915080821115611baf57600080fd5b50611bbc88828901611b11565b9094509250611bcf905060408701611a6d565b90509295509295909350565b600060208284031215611bed57600080fd5b6119ea82611a6d565b60008060408385031215611c0957600080fd5b611c1283611a6d565b915060208301358015158114611c2757600080fd5b809150509250929050565b634e487b7160e01b600052604160045260246000fd5b600067ffffffffffffffff80841115611c6357611c63611c32565b604051601f8501601f19908116603f01168101908282118183101715611c8b57611c8b611c32565b81604052809350858152868686011115611ca457600080fd5b858560208301376000602087830101525050509392505050565b600082601f830112611ccf57600080fd5b6119ea83833560208501611c48565b600080600080600080600080610100898b031215611cfb57600080fd5b883567ffffffffffffffff80821115611d1357600080fd5b611d1f8c838d01611cbe565b995060208b0135915080821115611d3557600080fd5b611d418c838d01611cbe565b985060408b0135915080821115611d5757600080fd5b50611d648b828c01611cbe565b989b979a5097986060810135985060808101359760a0820135975060c0820135965060e090910135945092505050565b60008060008060808587031215611daa57600080fd5b611db385611a6d565b9350611dc160208601611a6d565b925060408501359150606085013567ffffffffffffffff811115611de457600080fd5b8501601f81018713611df557600080fd5b611e0487823560208401611c48565b91505092959194509250565b6000610120808352611e248184018d611a15565b90508281036020840152611e38818c611a15565b90508281036040840152611e4c818b611a15565b60608401999099525050608081019590955260a085019390935260c084019190915260e0830152610100909101529392505050565b60008060408385031215611e9457600080fd5b611e9d83611a6d565b9150611eab60208401611a6d565b90509250929050565b600181811c90821680611ec857607f821691505b602082108103611ee857634e487b7160e01b600052602260045260246000fd5b50919050565b634e487b7160e01b600052601160045260246000fd5b80820281158282048414176104ce576104ce611eee565b808201808211156104ce576104ce611eee565b600060018201611f4057611f40611eee565b5060010190565b600082611f6457634e487b7160e01b600052601260045260246000fd5b500490565b6020808252600c908201526b15539055551213d49256915160a21b604082015260600190565b601f821115610a2c576000816000526020600020601f850160051c81016020861015611fb85750805b601f850160051c820191505b81811015611fd757828155600101611fc4565b505050505050565b67ffffffffffffffff831115611ff757611ff7611c32565b61200b836120058354611eb4565b83611f8f565b6000601f84116001811461203f57600085156120275750838201355b600019600387901b1c1916600186901b17835561094b565b600083815260209020601f19861690835b828110156120705786850135825560209485019460019092019101612050565b508682101561208d5760001960f88860031b161c19848701351681555b505060018560011b0183555050505050565b815167ffffffffffffffff8111156120b9576120b9611c32565b6120cd816120c78454611eb4565b84611f8f565b602080601f83116001811461210257600084156120ea5750858301515b600019600386901b1c1916600185901b178555611fd7565b600085815260208120601f198616915b8281101561213157888601518255948401946001909101908401612112565b508582101561214f5787850151600019600388901b60f8161c191681555b5050505050600190811b01905550565b6000815461216c81611eb4565b600182811680156121845760018114612199576121c8565b60ff19841687528215158302870194506121c8565b8560005260208060002060005b858110156121bf5781548a8201529084019082016121a6565b50505082870194505b5050505092915050565b600081516121e48185602086016119f1565b9290920192915050565b683d913730b6b2911d1160b91b8152600061220c600983018b61215f565b61202360f01b81528951612227816002840160208e016119f1565b6201017960ed1b60029290910191820152885161224b816005840160208d016119f1565b6a11161134b6b0b3b2911d1160a91b60059290910191820152612271601082018961215f565b701116113232b9b1b934b83a34b7b7111d1160791b81529050612297601182018861215f565b6f222c2261747472696275746573223a5b60801b815290506122bc60108201876121d2565b600b60fa1b815290506122d260018201866121d2565b600b60fa1b815290506122e860018201856121d2565b615d7d60f01b81526002019b9a5050505050505050505050565b7f646174613a6170706c69636174696f6e2f6a736f6e3b6261736536342c00000081526000825161233a81601d8501602087016119f1565b91909101601d0192915050565b6001600160a01b038581168252841660208201526040810183905260806060820181905260009061237a90830184611a15565b9695505050505050565b60006020828403121561239657600080fd5b81516119ea816119b4565b6e3d913a3930b4ba2fba3cb832911d1160891b815282516000906123cc81600f8501602088016119f1565b6a1116113b30b63ab2911d1160a91b600f9184019182015283516123f781601a8401602088016119f1565b61227d60f01b601a9290910191820152601c0194935050505056fe4142434445464748494a4b4c4d4e4f505152535455565758595a6162636465666768696a6b6c6d6e6f707172737475767778797a303132333435363738392b2fa2646970667358221220ee1281ab2b762a5f3f0122540448de3e45983ae066e28086de12b54efc3b509c64736f6c63430008170033",
    "linkReferences": {}
  },
  "methodIdentifiers": {
    "approve(address,uint256)": "095ea7b3",
    "balanceOf(address)": "70a08231",
    "batchMint(uint256,uint256)": "0ed64eff",
    "createEditionInfo(string,string,string,uint256,uint256,uint256,uint256,uint256)": "adbad04e",
    "getApproved(uint256)": "081812fc",
    "init(string,string,address)": "6ee5741a",
    "isApprovedForAll(address,address)": "e985e9c5",
    "name()": "06fdde03",
    "nextTokenId()": "75794a3c",
    "nextTokenTypeId()": "01a03f9f",
    "owner()": "8da5cb5b",
    "ownerOf(uint256)": "6352211e",
    "pause()": "8456cb59",
    "paused()": "5c975abb",
    "safeTransferFrom(address,address,uint256)": "42842e0e",
    "safeTransferFrom(address,address,uint256,bytes)": "b88d4fde",
    "setApprovalForAll(address,bool)": "a22cb465",
    "supportsInterface(bytes4)": "01ffc9a7",
    "symbol()": "95d89b41",
    "tokenIdToEdition(uint256)": "a0e0fa35",
    "tokenURI(uint256)": "c87b56dd",
    "transferFrom(address,address,uint256)": "23b872dd",
    "transferOwnership(address)": "f2fde38b",
    "typeIDToInfo(uint256)": "c6d6fd19",
    "unpause()": "3f4ba83a"
  },
  "id": 65
}